:1000000032C044C043C042C041C040C03FC03EC0F7
:100010003DC03CC03BC03AC039C038C037C036C014
:1000200035C04C696E652032206C6F6E676572203A
:100030007468616E20313420636861726163746535
:100040007273004C696E652031206C6F6E6765724B
:10005000207468616E20313420636861726163745A
:100060006572730A000011241FBECFE5D2E0DEBF27
:10007000CDBF10E0A0E6B0E0E6EDF2E002C00590F2
:100080000D92AE37B107D9F7BCD023C1B9CFDE9AF4
:1000900000C0DE980895CF93DF93D82F662311F028
:1000A000DC9A01C0DC98DD988AB38F608ABBCBB341
:1000B000C07F8D2F82958F708C2B8BBBE8DFDF701C
:1000C000DC2BDBBBE4DFCF60CBBBDF91CF910895AE
:1000D000882311F0DC9A01C0DC98DD9A8AB3807F16
:1000E0008ABBDE9A00C099B3DE9800C0DE9A00C0D9
:1000F00089B39295907F8F70DE98892B089580E068
:10010000E7DF8823E4F382E090E00197F1F780E0F5
:10011000DFDF0895CF93C82FF2DF60E08C2FBBDFC5
:10012000CF91089581E0F6DF0895CF93C82FE7DFE0
:10013000CA3041F4803410F480E401C080E080587B
:10014000E9DF03C061E08C2FA6DFCF910895CF9344
:10015000DF93EC012196FC018081882321F0E5DF0B
:1001600089918111FCCFDF91CF910895CF93DF93D7
:10017000EC012196FC018491882331F0D6DFFE0149
:10018000849121968111FACFDF91CF910895CF9379
:10019000C82F8AB38F678ABBE0E8FEE33197F1F797
:1001A000D99AD89A74DFE0E8F3E13197F1F76FDF7D
:1001B000E0E4F0E03197F1F76ADFE0E4F0E0319756
:1001C000F1F7D89864DFE0E4F0E03197F1F788E2E6
:1001D000A1DF88E09FDFA6DF86E09CDF8C2F9ADF1F
:1001E000CF9108954FEF3FEF26B3842F932F0197C0
:1001F0000097E9F786B3822380FDF6CFB09BFECF50
:100200000895CF93DF93CDB7DEB727970FB6F89455
:10021000DEBF0FBECDBFB898C09A8CE0B8DF82DFDA
:1002200080E690E094DF84E790E091DFDBDF8EE012
:1002300071DF88E790E08BDFD5DF74DF83E490E047
:1002400095DF82E290E092DF88E164DFCBDF8CE033
:1002500061DF68DF4AE0BE016F5F7F4F86E890E0B4
:1002600005D0CE01019673DFBDDFD9CFBB274A3061
:1002700031F4992322F4BDE2909581959F4F01C0FE
:10028000BB27FB015527AA27880F991FAA1FA41770
:1002900010F0A41B83955051B9F7A05DAA3308F064
:1002A000A95DA193009779F7B111B1931192CB0198
:1002B00000C0DC01FC01672F71917723E1F73297D1
:1002C00004C07C916D9370836291AE17BF07C8F331
:0602D0000895F894FFCF31
:1002D60074686973207761732064696666696375FB
:0E02E6006C740A00796179004375724F6E00E6
:00000001FF
