:10000000FDC0000017C1000015C1000013C10000B1
:1000100011C100000FC100000DC100000BC10000A4
:1000200009C1000007C1000005C1000003C10000B4
:1000300001C10000FFC00000FDC00000FBC00000C7
:10004000F9C00000F7C00000F5C00000F3C00000D8
:10005000F1C00000EFC00000EDC00000EBC00000E8
:10006000E9C00000E7C00000E5C00000E3C00000F8
:10007000E1C00000DFC00000DDC00000DBC0000008
:10008000D9C00000D7C00000D5C00000D3C0000018
:10009000D1C00000CFC00000CDC00000CBC0000028
:1000A000C9C00000C7C00000C5C00000C3C0000038
:1000B000C1C00000BFC00000BDC00000BBC0000048
:1000C000B9C00000B7C00000B5C00000B3C0000058
:1000D000B1C00000AFC00000ADC00000ABC0000068
:1000E000A9C00000A7C00000A5C00000A3C0000078
:1000F000A1C000009FC000009DC000009BC0000088
:1001000099C0000097C0000095C0000093C0000097
:1001100091C000008FC000008DC000008BC00000A7
:1001200089C0000087C0000085C0000083C00000B7
:1001300081C000007FC000007DC000007BC00000C7
:1001400079C0000077C0000075C0000073C00000D7
:1001500071C000006FC000006DC000006BC00000E7
:1001600069C0000067C0000065C0000063C00000F7
:1001700061C000005FC000005DC000005BC0000007
:1001800059C0000057C0000055C0000053C0000017
:1001900051C000004FC000004DC000004BC0000027
:1001A00049C0000047C0000045C0000043C0000037
:1001B00041C000003FC000003DC000003BC0000047
:1001C00039C0000037C0000035C0000033C0000057
:1001D00031C000002FC000002DC000002BC0000067
:1001E00029C0000027C0000025C0000023C0000077
:1001F00021C000001FC000001DC0000011241FBE50
:10020000CFEFCDBFDFE3DEBF00E00CBF18BE19BEED
:100210001ABE1BBE10E2A0E0B0E2E0E3F2E100E0B3
:100220000BBF02C007900D92A232B107D9F71BBED7
:1002300043D2FCC7E5CEE0E4F6E0848184608483A9
:1002400000C084818B7F84830895CF93C82F662359
:1002500031F0E0E4F6E084818160848305C0E0E46D
:10026000F6E084818E7F8483E0E4F6E084818D7FF4
:1002700084838081886080838081806180838081A5
:100280008062808380818064808384818F7B84838B
:1002900084818F7D848384818F7E84838481877F22
:1002A0008483CC231CF4848180648483C6FF05C0CE
:1002B000E0E4F6E0848180628483C5FF05C0E0E469
:1002C000F6E0848180618483C4FF05C0E0E4F6E049
:1002D000848188608483AFDFE0E4F6E084818F7BF3
:1002E000848384818F7D848384818F7E84838481D1
:1002F000877F8483C3FF03C0848180648483C2FFBB
:1003000005C0E0E4F6E0848180628483C1FF05C01B
:10031000E0E4F6E0848180618483C0FF05C0E0E40E
:10032000F6E084818860848386DFE0E4F6E08481FF
:1003300088608483848180618483848180628483F3
:10034000848180648483CF910895882331F0E0E430
:10035000F6E084818160848305C0E0E4F6E0848176
:100360008E7F8483E0E4F6E08481826084838081F0
:10037000877F808380818F7E808380818F7D808353
:1003800080818F7B808384818460848300C080919E
:10039000420683FD02C080E001C080E190914206E8
:1003A00094FD80629091420695FD80649091420692
:1003B00096FD8068E0E4F6E094819B7F948300C022
:1003C00094819460948300C09091420693FD816073
:1003D0009091420694FD82609091420695FD846062
:1003E0009091420696FD8860E0E4F6E094819B7F60
:1003F0009483089580E0A9DF8823E4F380E190E00E
:100400000197F1F780E0A1CF0895CF93C82FF2DFD5
:1004100060E08C2F1ADFCF910895611103C08058DE
:10042000F4CF08958054F1CF089581E0EECF089580
:10043000CF93C82FDFDFCA3041F4803410F480E45A
:1004400001C080E08058E1DF03C061E08C2FFDDE59
:10045000CF910895CF93DF93EC012196FC01808129
:10046000882321F0E5DF89918111FCCFDF91CF91C5
:100470000895CF93C82FE0E4F6E080818160808307
:1004800080818260808380818460808380818860B5
:10049000808380818061808380818062808380818D
:1004A00080648083E0E0F4EF3197F1F7E0E4F6E078
:1004B000848180618483848188608483BCDEE0E001
:1004C000FCE93197F1F7B7DEE0E0F2E03197F1F7C0
:1004D000B2DEE0E0F2E03197F1F7E0E4F6E08481AB
:1004E000877F8483A8DEE0E0F2E03197F1F788E2CD
:1004F0008CDF88E08ADF99DF86E087DF8C2F85DF5D
:10050000CF9108958230A9F0843021F1811133C058
:10051000E0E8F1E0608389E08087442371F16E5F59
:10052000618381E0818780858061282B208781E03D
:100530000895E0E8F1E0628389E082874423F9F0DE
:100540006E5F638381E0838782858061282B2287A9
:1005500081E00895E0E8F1E0648389E08487442342
:1005600081F06E5F658381E0858784858061282BBB
:10057000248781E0089580E0089581E0089581E076
:10058000089581E00895FC014423F9F06630F0F508
:1005900087E090E0062E02C0880F991F0A94E2F7C8
:1005A000828384E090E0062E02C0880F991F0A948F
:1005B000E2F78093B0008089887F222311F090E4D5
:1005C00001C090E0892B808B0BC0673008F583E079
:1005D00090E0062E02C0880F991F0A94E2F78283EA
:1005E00083E090E0AC0102C0440F551F6A95E2F72A
:1005F0004093B0008089887F8360222311F090E4CB
:1006000001C090E0892B808B81E0089580E00895FF
:1006100080E00895FC016066638350E0440F551F3D
:10062000440F551F4150510946A357A381E08083D1
:1006300080E1818383E0878388EE93E080A791A7A0
:1006400008958F92AF92BF92CF92EF92FF920F9345
:100650001F93CF93DF93CDB7DEB7F22E242F4E2D0D
:1006600092DF182F882361F02C2D4E2D602F8F2DB7
:1006700049DF182F882321F04E85682DC501CADF78
:10068000812FDF91CF911F910F91FF90EF90CF902D
:10069000BF90AF908F9008958CE0EBDE81E090E208
:1006A000D9DE8CE0B2CE0895C0DE60E080E0B5DE39
:1006B00086E090E2CFCE0895CF93DF93CDB7DEB73B
:1006C0006397CDBFDEBFE8DFE0E0F6E083E781833C
:1006D00080E3828B848180628483E0EAF0E082811F
:1006E000846082838281826082838281816082834E
:1006F000809100208F936894882483F8A12C6894BB
:10070000BB24B3F8C12CE12C08E620E040E060E017
:1007100080E696E096DFC8DF8BE090E29BDE61E04A
:1007200080E07BDE8EE090E295DE0F90C12CD12C34
:1007300076010F2E612CF6E07F2EF02D00E018E000
:10074000CE0101962C01312C212C888B598A46012F
:100750005701D30118968C9182FFFBCF0F2EF4E640
:10076000CF2EF02DD12CF3018481806184830F2E54
:10077000F9E1EF2EF12CF02DE0E0F0E03A8A2B8A3F
:100780001BC0F801848584FFFCCFE92FF22FAA8BD0
:10079000BB8B20E030E040E85FE36E2F7F2F8A893B
:1007A0009B89DDD0E62FF72F8A8B9B8B21E0E21A05
:1007B000F108E114F10451F0D8011C962C9124FDAC
:1007C000E8CF9E2F2F2FAA89BB89DBCFAA89BB89AF
:1007D000262F372F4A2F5B2FC501B401C0D04B0104
:1007E0005C01F30184818F7E84835EDF20E030E44E
:1007F0004CE155E4C501B40116D120E030E048ECED
:1008000052E4FBD178D17F936F93A7E1B0E2BF931D
:10081000AF935F924F9254D2888999891BDEFFE98A
:1008200026E881E0F15020408040E1F700C0000060
:1008300091E0C91AD1080F900F900F900F900F9070
:100840000F90C114D10409F08ECF61E080E0E5DDA6
:100850008AE190E2FFDDD30118968C9182FFFBCFF5
:100860000F2EF4E6CF2EF02DD12CF301848180647D
:1008700084830F2EF9E1EF2EF12CF02DE0E0F0E073
:100880003A8A2B8A1BC0F801848584FFFCCFE92FAC
:10089000F22FAA8BBB8B20E030E040E85FE36E2FA5
:1008A0007F2F8A899B895BD0E62FF72F8A8B9B8BC2
:1008B00021E0E21AF108E114F10451F0D8011C968C
:1008C0002C9124FDE8CF9E2F2F2FAA89BB89DBCF47
:1008D000AA89BB89262F372F4A2F5B2FC501B40168
:1008E0003DD04B015C01F30184818F7B8483DCDE8E
:1008F00020E030E44CE155E4C501B40194D020E09F
:1009000030E048EC52E479D1F6D07F936F93A7E1C1
:10091000B0E2BF93AF935F924F92D2D18889998909
:1009200099DDFFE926E881E0F15020408040E1F7C1
:1009300000C0000091E0C91AD1080F900F900F90ED
:100940000F900F900F90C114D10409F08ECF61E089
:1009500080E063DD8EE090E27DDDFBCE5058BB276A
:10096000AA270ED010C101D130F006D120F031F409
:100970009F3F11F41EF4F6C00EF4E095E7FBECC0C7
:10098000E92F12D180F3BA1762077307840795071E
:1009900018F071F49EF52AC10EF4E0950B2EBA2FD3
:1009A000A02D0B01B90190010C01CA01A001112475
:1009B000FF27591B99F0593F50F4503E68F11A1621
:1009C000F040A22F232F342F4427585FF3CF4695B2
:1009D00037952795A795F0405395C9F77EF41F16D4
:1009E000BA0B620B730B840BBAF09150A1F0FF0F9E
:1009F000BB1F661F771F881FC2F70EC0BA0F621F8A
:100A0000731F841F48F4879577956795B795F79579
:100A10009E3F08F0B3CF9395880F08F09927EE0F0B
:100A20009795879508950CD0AEC0A6D040F09DD084
:100A300030F021F45F3F19F08FC05111D8C092C03F
:100A4000B3D098F39923C9F35523B1F3951B550BF4
:100A5000BB27AA2762177307840738F09F5F5F4F91
:100A6000220F331F441FAA1FA9F333D00E2E3AF0D2
:100A7000E0E830D091505040E695001CCAF729D0EC
:100A8000FE2F27D0660F771F881FBB1F261737073B
:100A90004807AB07B0E809F0BB0B802DBF01FF276B
:100AA00093585F4F2AF09E3F510568F055C09FC094
:100AB0005F3FECF3983EDCF3869577956795B795A5
:100AC000F7959F5FC9F7880F911D9695879597F9C0
:100AD0000895E1E0660F771F881FBB1F6217730739
:100AE0008407BA0720F0621B730B840BBA0BEE1F4E
:100AF00088F7E095089504D06894B11178C00895FE
:100B00005BD088F09F5790F0B92F9927B751A0F08C
:100B1000D1F0660F771F881F991F1AF0BA95C9F791
:100B200012C0B13081F062D0B1E008955FC0672F8C
:100B3000782F8827B85F39F0B93FCCF38695779541
:100B40006795B395D9F73EF490958095709561952A
:100B50007F4F8F4F9F4F089597F99F6780E870E010
:100B600060E008959FEF80EC089500240A94161623
:100B7000170618060906089500240A94121613068B
:100B8000140605060895092E0394000C11F4882319
:100B900052F0BB0F40F4BF2B11F460FF04C06F5F35
:100BA0007F4F8F4F9F4F089557FD9058440F551F0B
:100BB00059F05F3F71F04795880F97FB991F61F0DF
:100BC0009F3F79F087950895121613061406551F56
:100BD000F2CF4695F1DF08C0161617061806991FC2
:100BE000F1CF86957105610508940895E894BB27B7
:100BF00066277727CB0197F908950BD0C4CFB5DFCF
:100C000028F0BADF18F0952309F0A6CFABCF112456
:100C1000EECFCADFA0F3959FD1F3950F50E0551F9B
:100C2000629FF001729FBB27F00DB11D639FAA2741
:100C3000F00DB11DAA1F649F6627B00DA11D661F90
:100C4000829F2227B00DA11D621F739FB00DA11DB1
:100C5000621F839FA00D611D221F749F3327A00D6B
:100C6000611D231F849F600D211D822F762F6A2F07
:100C700011249F5750408AF0E1F088234AF0EE0F8C
:100C8000FF1FBB1F661F771F881F91505040A9F799
:100C90009E3F510570F060CFAACF5F3FECF3983EC6
:100CA000DCF3869577956795B795F795E7959F5F00
:100CB000C1F7FE2B880F911D9695879597F908959A
:100CC0000F931F93CF93DF93CDB7DEB72E97CDBF92
:100CD000DEBF0E891F8986E08C8309831A838FEF1C
:100CE0009FE78D839E83AE01465E5F4F688D798D51
:100CF000CE0101960DD0EF81F885E00FF11F108233
:100D00002E96CDBFDEBFDF91CF911F910F91089539
:100D10002F923F924F925F926F927F928F929F920B
:100D2000AF92BF92CF92DF92EF92FF920F931F93F9
:100D3000CF93DF93CDB7DEB72C97CDBFDEBF7C015D
:100D40006B018A01FC0116821782838181FFB0C189
:100D5000CE0101964C01F7019381F60193FD859137
:100D600093FF81916F01882309F49EC1853239F484
:100D700093FD859193FF81916F01853221F4B70135
:100D800090E0C4D1E8CF512C312C20E02032A0F4E7
:100D90008B3269F030F4803259F0833269F420618B
:100DA0002CC08D3239F0803339F4216026C02260A6
:100DB000246023C0286021C027FD27C030ED380FF4
:100DC0003A3078F426FF06C0FAE05F9E300D112419
:100DD000532E13C08AE0389E300D1124332E20622A
:100DE0000CC08E3221F426FD5FC1206406C08C3613
:100DF00011F4206802C0883641F4F60193FD859114
:100E000093FF81916F018111C1CF982F9F7D9554E0
:100E1000933028F40C5F1F4FFFE3F9830DC0833636
:100E200031F0833771F0833509F057C021C0F801E4
:100E3000808189830E5F1F4F44244394512C5401B9
:100E400014C03801F2E06F0E711CF801A080B1806F
:100E500026FF03C0652D70E002C06FEF7FEFC50174
:100E60002C8749D12C0183012C852F77222E16C087
:100E70003801F2E06F0E711CF801A080B18026FFEE
:100E800003C0652D70E002C06FEF7FEFC5012C87B6
:100E900027D12C012C852068222E830123FC19C028
:100EA000832D90E048165906A0F4B70180E290E047
:100EB0002DD13A94F5CFF50127FC859127FE81913C
:100EC0005F01B70190E022D131103A94F1E04F1A5E
:100ED00051084114510479F7DEC0843611F0893687
:100EE00031F5F80127FF07C060817181828193810C
:100EF0000C5F1F4F08C060817181882777FD809546
:100F0000982F0E5F1F4F2F76B22E97FF09C0909536
:100F10008095709561957F4F8F4F9F4F2068B22EBF
:100F20002AE030E0A40124D1A82EA81843C08537B8
:100F300029F42F7EB22E2AE030E025C0F22FF97F6F
:100F4000BF2E8F36C1F018F4883579F0ADC08037E8
:100F500019F0883721F0A8C02F2F2061B22EB4FEDF
:100F60000DC08B2D8460B82E09C024FF0AC09F2FAE
:100F70009660B92E06C028E030E005C020E130E0E0
:100F800002C020E132E0F801B7FE07C06081718144
:100F9000828193810C5F1F4F06C06081718180E068
:100FA00090E00E5F1F4FA401E3D0A82EA818FB2DE0
:100FB000FF77BF2EB6FE0BC02B2D2E7FA51450F44D
:100FC000B4FE0AC0B2FC08C02B2D2E7E05C07A2CC0
:100FD0002B2D03C07A2C01C0752C24FF0DC0FE01FF
:100FE000EA0DF11D8081803311F4297E09C022FFB2
:100FF00006C07394739404C0822F867809F07394AA
:1010000023FD12C020FF06C05A2C731418F4530C91
:101010005718732C731460F4B70180E290E02C87AA
:1010200075D073942C85F6CF731410F4371801C063
:10103000312C24FF11C0B70180E390E02C8766D0EB
:101040002C8522FF16C021FF03C088E590E002C076
:1010500088E790E0B7010CC0822F867851F021FD1F
:1010600002C080E201C08BE227FD8DE2B70190E073
:101070004DD0A51430F4B70180E390E047D05A94E6
:10108000F8CFAA94F401EA0DF11D8081B70190E038
:101090003DD0A110F6CF332009F45DCEB70180E238
:1010A00090E034D03A94F7CFF7018681978102C05F
:1010B0008FEF9FEF2C96CDBFDEBFDF91CF911F91B9
:1010C0000F91FF90EF90DF90CF90BF90AF909F90E7
:1010D0008F907F906F905F904F903F902F900895EA
:1010E000FC010590615070400110D8F780959095F3
:1010F0008E0F9F1F0895FC016150704001900110F8
:10110000D8F7809590958E0F9F1F08950F931F938A
:10111000CF93DF93182F092FEB018B8181FD03C043
:101120008FEF9FEF20C082FF10C04E815F812C8126
:101130003D81421753077CF4E881F9819F012F5FBD
:101140003F4F28833983108306C0E885F985812FB6
:101150001995892B29F72E813F812F5F3F4F2E83D1
:101160003F83812F902FDF91CF911F910F91089591
:10117000FA01AA27283051F1203181F1E8946F93C8
:101180006E7F6E5F7F4F8F4F9F4FAF4FB1E03ED06E
:10119000B4E03CD0670F781F891F9A1FA11D680F0C
:1011A000791F8A1F911DA11D6A0F711D811D911D3F
:1011B000A11D20D009F468943F912AE0269F1124B4
:1011C0003019305D3193DEF6CF010895462F477018
:1011D000405D4193B3E00FD0C9F7F6CF462F4F7073
:1011E000405D4A3318F0495D31FD4052419302D0D1
:1011F000A9F7EACFB4E0A695979587957795679577
:10120000BA95C9F700976105710508959B01AC0176
:101210000A2E06945795479537952795BA95C9F79D
:10122000620F731F841F951FA01D0895F894FFCFB0
:10123000FF74657374003031323300302500556E11
:101240006C6F636B6564002564004C6F636B656451
:0212500000009C
:00000001FF
