S0130000716465635F6472697665722E7372656389
S1130000FDC0000017C1000015C1000013C10000AD
S113001011C100000FC100000DC100000BC10000A0
S113002009C1000007C1000005C1000003C10000B0
S113003001C10000FFC00000FDC00000FBC00000C3
S1130040F9C00000F7C00000F5C00000F3C00000D4
S1130050F1C00000EFC00000EDC00000EBC00000E4
S1130060E9C00000E7C00000E5C00000E3C00000F4
S1130070E1C00000DFC00000DDC00000DBC0000004
S1130080D9C00000D7C00000D5C00000D3C0000014
S1130090D1C00000CFC00000CDC00000CBC0000024
S11300A0C9C00000C7C00000C5C00000C3C0000034
S11300B0C1C00000BFC00000BDC00000BBC0000044
S11300C0B9C00000B7C00000B5C00000B3C0000054
S11300D0B1C00000AFC00000ADC00000ABC0000064
S11300E0A9C00000A7C00000A5C00000A3C0000074
S11300F0A1C000009FC000009DC000009BC0000084
S113010099C0000097C0000095C0000093C0000093
S113011091C000008FC000008DC000008BC00000A3
S113012089C0000087C0000085C0000083C00000B3
S113013081C000007FC000007DC000007BC00000C3
S113014079C0000077C0000075C0000073C00000D3
S113015071C000006FC000006DC000006BC00000E3
S113016069C0000067C0000065C0000063C00000F3
S113017061C000005FC000005DC000005BC0000003
S113018059C0000057C0000055C0000053C0000013
S113019051C000004FC000004DC000004BC0000023
S11301A049C0000047C0000045C0000043C0000033
S11301B041C000003FC000003DC000003BC0000043
S11301C039C0000037C0000035C0000033C0000053
S11301D031C000002FC000002DC000002BC0000063
S11301E029C0000027C0000025C0000023C0000073
S11301F021C000001FC000001DC0000011241FBE4C
S1130200CFEFCDBFDFE3DEBF00E00CBF18BE19BEE9
S11302101ABE1BBE10E2A0E0B0E2EAE0FDE000E09E
S11302200BBF02C007900D92AA30B107D9F71BBECD
S11302303ED269C5E5CEE0E4F6E08481846084833F
S113024000C084818B7F84830895CF93C82F662355
S113025031F0E0E4F6E084818160848305C0E0E469
S1130260F6E084818E7F8483E0E4F6E084818D7FF0
S113027084838081886080838081806180838081A1
S11302808062808380818064808384818F7B848387
S113029084818F7D848384818F7E84838481877F1E
S11302A08483CC231CF4848180648483C6FF05C0CA
S11302B0E0E4F6E0848180628483C5FF05C0E0E465
S11302C0F6E0848180618483C4FF05C0E0E4F6E045
S11302D0848188608483AFDFE0E4F6E084818F7BEF
S11302E0848384818F7D848384818F7E84838481CD
S11302F0877F8483C3FF03C0848180648483C2FFB7
S113030005C0E0E4F6E0848180628483C1FF05C017
S1130310E0E4F6E0848180618483C0FF05C0E0E40A
S1130320F6E084818860848386DFE0E4F6E08481FB
S113033088608483848180618483848180628483EF
S1130340848180648483CF910895882331F0E0E42C
S1130350F6E084818160848305C0E0E4F6E0848172
S11303608E7F8483E0E4F6E08481826084838081EC
S1130370877F808380818F7E808380818F7D80834F
S113038080818F7B808384818460848300C080919A
S1130390420683FD02C080E001C080E190914206E4
S11303A094FD80629091420695FD8064909142068E
S11303B096FD8068E0E4F6E094819B7F948300C01E
S11303C094819460948300C09091420693FD81606F
S11303D09091420694FD82609091420695FD84605E
S11303E09091420696FD8860E0E4F6E094819B7F5C
S11303F09483089580E0A9DF8823E4F380E190E00A
S11304000197F1F780E0A1CF0895CF93C82FF2DFD1
S113041060E08C2F1ADFCF910895611103C08058DA
S1130420F4CF08958054F1CF089581E0EECF08957C
S1130430CF93C82FDFDFCA3041F4803410F480E456
S113044001C080E08058E1DF03C061E08C2FFDDE55
S1130450CF910895CF93DF93EC012196FC01808125
S1130460882321F0E5DF89918111FCCFDF91CF91C1
S11304700895CF93C82FE0E4F6E080818160808303
S113048080818260808380818460808380818860B1
S11304908083808180618083808180628083808189
S11304A080648083E0E0F4EF3197F1F7E0E4F6E074
S11304B0848180618483848188608483BCDEE0E0FD
S11304C0FCE93197F1F7B7DEE0E0F2E03197F1F7BC
S11304D0B2DEE0E0F2E03197F1F7E0E4F6E08481A7
S11304E0877F8483A8DEE0E0F2E03197F1F788E2C9
S11304F08CDF88E08ADF99DF86E087DF8C2F85DF59
S1130500CF9108958230A9F0843021F1811133C054
S1130510E0E8F1E0608389E08087442371F16E5F55
S1130520618381E0818780858061282B208781E039
S11305300895E0E8F1E0628389E082874423F9F0DA
S11305406E5F638381E0838782858061282B2287A5
S113055081E00895E0E8F1E0648389E0848744233E
S113056081F06E5F658381E0858784858061282BB7
S1130570248781E0089580E0089581E0089581E072
S1130580089581E00895FC014423F9F06630F0F504
S113059087E090E0062E02C0880F991F0A94E2F7C4
S11305A0828384E090E0062E02C0880F991F0A948B
S11305B0E2F78093B0008089887F222311F090E4D1
S11305C001C090E0892B808B0BC0673008F583E075
S11305D090E0062E02C0880F991F0A94E2F78283E6
S11305E083E090E0AC0102C0440F551F6A95E2F726
S11305F04093B0008089887F8360222311F090E4C7
S113060001C090E0892B808B81E0089580E00895FB
S113061080E00895FC016066638350E0440F551F39
S1130620440F551F4150510946A357A380E18083CD
S113063083E086838BEF93E080A791A708958F9240
S1130640AF92BF92CF92EF92FF920F931F93CF93EB
S1130650DF93CDB7DEB7F22E242F4E2D94DF182F63
S1130660882361F02C2D4E2D602F8F2D4BDF182FFA
S1130670882321F04E85682DC501CCDF812FDF91C1
S1130680CF911F910F91FF90EF90CF90BF90AF90BB
S11306908F9008958CE0EDDE81E090E2DBDE8CE06B
S11306A0B4CE0895C2DE60E080E0B7CE0895CF9363
S11306B0DF93CDB7DEB72F97CDBFDEBFEBDFE0E032
S11306C0F6E083E7818380E3828B84818062848384
S11306D0E0EAF0E0828184608283828182608283A6
S11306E0828181608283809100208F936894882422
S11306F083F8A12C6894BB24B3F8C12CE12C08E640
S113070020E040E060E080E696E099DFCBDFE0E0C7
S1130710F8E080A191A19F938F9386E090E29F934C
S11307208F938E010F5F1F4F1F930F9336D0C80115
S113073091DECDBFDEBFA12CB12C00E018E00F2E5E
S1130740F6E0CF2EF0E2DF2EF02DFE0131967F0190
S1130750F80120A131A1848584FFFACFFFEFAF1AFD
S1130760BF0AA0DFF80180A191A19F938F93DF922C
S1130770CF92FF92EF9211D0C7016CDE61E080E06E
S11307804CDEBF92AF92DF92CF92FF92EF9205D0F0
S1130790C70160DECDBFDEBFDBCF0F931F93CF93C6
S11307A0DF93CDB7DEB72E97CDBFDEBF0E891F898D
S11307B086E08C8309831A838FEF9FE78D839E8362
S11307C0AE01465E5F4F688D798DCE0101960DD0E6
S11307D0EF81F885E00FF11F10822E96CDBFDEBFAA
S11307E0DF91CF911F910F9108952F923F924F92D5
S11307F05F926F927F928F929F92AF92BF92CF92AD
S1130800DF92EF92FF920F931F93CF93DF93CDB7B5
S1130810DEB72C97CDBFDEBF7C016B018A01FC01E2
S113082016821782838181FFB0C1CE0101964C01EB
S1130830F7019381F60193FD859193FF81916F01F7
S1130840882309F49EC1853239F493FD859193FF81
S113085081916F01853221F4B70190E0C4D1E8CFD2
S1130860512C312C20E02032A0F48B3269F030F48A
S1130870803259F0833269F420612CC08D3239F012
S1130880803339F4216026C02260246023C02860AC
S113089021C027FD27C030ED380F3A3078F426FF09
S11308A006C0FAE05F9E300D1124532E13C08AE077
S11308B0389E300D1124332E20620CC08E3221F468
S11308C026FD5FC1206406C08C3611F4206802C086
S11308D0883641F4F60193FD859193FF81916F0170
S11308E08111C1CF982F9F7D9554933028F40C5FCC
S11308F01F4FFFE3F9830DC0833631F0833771F066
S1130900833509F057C021C0F801808189830E5FC7
S11309101F4F44244394512C540114C03801F2E075
S11309206F0E711CF801A080B18026FF03C0652DF5
S113093070E002C06FEF7FEFC5012C8749D12C0115
S113094083012C852F77222E16C03801F2E06F0E1A
S1130950711CF801A080B18026FF03C0652D70E0F2
S113096002C06FEF7FEFC5012C8727D12C012C85A6
S11309702068222E830123FC19C0832D90E04816A1
S11309805906A0F4B70180E290E02DD13A94F5CF56
S1130990F50127FC859127FE81915F01B70190E065
S11309A022D131103A94F1E04F1A51084114510404
S11309B079F7DEC0843611F0893631F5F80127FF66
S11309C007C060817181828193810C5F1F4F08C0D1
S11309D060817181882777FD8095982F0E5F1F4F66
S11309E02F76B22E97FF09C09095809570956195EA
S11309F07F4F8F4F9F4F2068B22E2AE030E0A40132
S1130A0024D1A82EA81843C0853729F42F7EB22EEE
S1130A102AE030E025C0F22FF97FBF2E8F36C1F0D7
S1130A2018F4883579F0ADC0803719F0883721F093
S1130A30A8C02F2F2061B22EB4FE0DC08B2D846070
S1130A40B82E09C024FF0AC09F2F9660B92E06C095
S1130A5028E030E005C020E130E002C020E132E0CF
S1130A60F801B7FE07C060817181828193810C5FB8
S1130A701F4F06C06081718180E090E00E5F1F4FC0
S1130A80A401E3D0A82EA818FB2DFF77BF2EB6FE35
S1130A900BC02B2D2E7FA51450F4B4FE0AC0B2FC5B
S1130AA008C02B2D2E7E05C07A2C2B2D03C07A2C4A
S1130AB001C0752C24FF0DC0FE01EA0DF11D8081DB
S1130AC0803311F4297E09C022FF06C07394739405
S1130AD004C0822F867809F0739423FD12C020FF8E
S1130AE006C05A2C731418F4530C5718732C73142F
S1130AF060F4B70180E290E02C8775D073942C8564
S1130B00F6CF731410F4371801C0312C24FF11C030
S1130B10B70180E390E02C8766D02C8522FF16C0B5
S1130B2021FF03C088E590E002C088E790E0B701A8
S1130B300CC0822F867851F021FD02C080E201C0F2
S1130B408BE227FD8DE2B70190E04DD0A51430F47F
S1130B50B70180E390E047D05A94F8CFAA94F40107
S1130B60EA0DF11D8081B70190E03DD0A110F6CFD0
S1130B70332009F45DCEB70180E290E034D03A949A
S1130B80F7CFF7018681978102C08FEF9FEF2C96F4
S1130B90CDBFDEBFDF91CF911F910F91FF90EF90FA
S1130BA0DF90CF90BF90AF909F908F907F906F9089
S1130BB05F904F903F902F900895FC0105906150F5
S1130BC070400110D8F7809590958E0F9F1F08955F
S1130BD0FC016150704001900110D8F78095909508
S1130BE08E0F9F1F08950F931F93CF93DF93182F9A
S1130BF0092FEB018B8181FD03C08FEF9FEF20C094
S1130C0082FF10C04E815F812C813D8142175307C2
S1130C107CF4E881F9819F012F5F3F4F288339835A
S1130C20108306C0E885F985812F1995892B29F74A
S1130C302E813F812F5F3F4F2E833F83812F902F43
S1130C40DF91CF911F910F910895FA01AA272830BF
S1130C5051F1203181F1E8946F936E7F6E5F7F4F85
S1130C608F4F9F4FAF4FB1E03ED0B4E03CD0670F01
S1130C70781F891F9A1FA11D680F791F8A1F911D54
S1130C80A11D6A0F711D811D911DA11D20D009F4A4
S1130C9068943F912AE0269F11243019305D3193E6
S1130CA0DEF6CF010895462F4770405D4193B3E0CF
S1130CB00FD0C9F7F6CF462F4F70405D4A3318F076
S1130CC0495D31FD4052419302D0A9F7EACFB4E027
S1130CD0A6959795879577956795BA95C9F70097DF
S1130CE06105710508959B01AC010A2E0694579580
S1130CF0479537952795BA95C9F7620F731F841FD7
S10D0D00951FA01D0895F894FFCF7D
S10D0D0AFF74657374002564000093
S9030000FC
