:10000000FDC000001FC100001DC100001BC1000099
:1000100019C1000017C1000015C1000013C1000084
:1000200011C100000FC100000DC100000BC1000094
:1000300009C1000007C1000005C1000003C10000A4
:1000400001C10000FFC00000FDC00000FBC00000B7
:10005000F9C00000F7C00000F5C00000F3C00000C8
:10006000F1C00000EFC00000EDC00000EBC00000D8
:10007000E9C00000E7C00000E5C00000E3C00000E8
:10008000E1C00000DFC00000DDC00000DBC00000F8
:10009000D9C00000D7C00000D5C00000D3C0000008
:1000A000D1C00000CFC00000CDC00000CBC0000018
:1000B000C9C00000C7C00000C5C00000C3C0000028
:1000C000C1C00000BFC00000BDC00000BBC0000038
:1000D000B9C00000B7C00000B5C00000B3C0000048
:1000E000B1C00000AFC00000ADC00000ABC0000058
:1000F000A9C00000A7C00000A5C00000A3C0000068
:10010000A1C000009FC000009DC000009BC0000077
:1001100099C0000097C0000095C0000093C0000087
:1001200091C000008FC000008DC000008BC0000097
:1001300089C0000087C0000085C0000083C00000A7
:1001400081C000007FC000007DC000007BC00000B7
:1001500079C0000077C0000075C0000073C00000C7
:1001600071C000006FC000006DC000006BC00000D7
:1001700069C0000067C0000065C0000063C00000E7
:1001800061C000005FC000005DC000005BC00000F7
:1001900059C0000057C0000055C0000053C0000007
:1001A00051C000004FC000004DC000004BC0000017
:1001B00049C0000047C0000045C0000043C0000027
:1001C00041C000003FC000003DC000003BC0000037
:1001D00039C0000037C0000035C0000033C0000047
:1001E00031C000002FC000002DC000002BC0000057
:1001F00029C0000027C0000025C0000011241FBE38
:10020000CFEFCDBFDFE3DEBF00E00CBF18BE19BEED
:100210001ABE1BBE10E2A0E0B0E2E2E1F4E000E0B2
:100220000BBF02C007900D92A230B107D9F71BBED9
:1002300020E2A2E0B0E201C01D92A230B207E1F7D5
:10024000C4D0E5C0DDCE8230A9F0843021F1811127
:1002500033C0E0E8F1E0608389E08087442371F1F6
:100260006E5F618381E0818780858061282B208794
:1002700081E00895E0E8F1E0628389E08287442329
:10028000F9F06E5F638381E0838782858061282B2C
:10029000228781E00895E0E8F1E0648389E08487C3
:1002A000442381F06E5F658381E08587848580616A
:1002B000282B248781E0089580E0089581E0089547
:1002C00081E0089581E00895FC014423F9F066304F
:1002D000F0F587E090E0062E02C0880F991F0A947F
:1002E000E2F7828384E090E0062E02C0880F991F17
:1002F0000A94E2F78093B0008089887F222311F06E
:1003000090E401C090E0892B808B0BC0673008F52A
:1003100083E090E0062E02C0880F991F0A94E2F74E
:10032000828383E090E0AC0102C0440F551F6A95C0
:10033000E2F74093B0008089887F8360222311F028
:1003400090E401C090E0892B808B81E0089580E0EB
:10035000089580E00895FC016066638350E0440FD7
:10036000551F440F551F4150510946A357A381E023
:10037000808308958F92AF92BF92CF92EF92FF92B7
:100380000F931F93CF93DF93CDB7DEB7F22E242FB9
:100390004E2D9ADF182F882361F02C2D4E2D602FC3
:1003A0008F2D51DF182F882321F04E85682DC50130
:1003B000D2DF812FDF91CF911F910F91FF90EF90AE
:1003C000CF90BF90AF908F9008958FEFE0E4F6E06C
:1003D0008183809100208F936894882483F8A12CD6
:1003E0006894BB24B3F8C12CE12C08E620E040E07F
:1003F00060E080E696E0BEDF0F90A0E0B9E0E0E4C8
:10040000F6E098968D919C9199978483FACFF89411
:02041000FFCF1C
:020412001E00CA
:00000001FF
